{
  "transactions": [
    {
      "hash": "0x4df79c3bac910bd4ab28991ae3d5eede969cafdbae620f862638dcf5c00355d7",
      "transactionType": "CALL",
      "contractName": null,
      "contractAddress": "0x0b9d5d9136855f6fec3c0993fee6e9ce8a297846",
      "function": "transferAndCall(address,uint256,bytes)",
      "arguments": [
        "0x2eD832Ba664535e5886b75D64C46EB9a228C2610",
        "3000000000000000000",
        "0x0000000000000000000000000000000000000000000000000000000000000af6"
      ],
      "transaction": {
        "from": "0x7888b7b844b4b16c03f8dacacef7dda0f5188645",
        "to": "0x0b9d5d9136855f6fec3c0993fee6e9ce8a297846",
        "gas": "0x19d5c",
        "value": "0x0",
        "input": "0x4000aea00000000000000000000000002ed832ba664535e5886b75d64c46eb9a228c261000000000000000000000000000000000000000000000000029a2241af62c0000000000000000000000000000000000000000000000000000000000000000006000000000000000000000000000000000000000000000000000000000000000200000000000000000000000000000000000000000000000000000000000000af6",
        "nonce": "0xa",
        "chainId": "0xa869"
      },
      "additionalContracts": [],
      "isFixedGasLimit": false
    }
  ],
  "receipts": [
    {
      "status": "0x1",
      "cumulativeGasUsed": "0x12b44",
      "logs": [
        {
          "address": "0x0b9d5d9136855f6fec3c0993fee6e9ce8a297846",
          "topics": [
            "0xddf252ad1be2c89b69c2b068fc378daa952ba7f163c4a11628f55a4df523b3ef",
            "0x0000000000000000000000007888b7b844b4b16c03f8dacacef7dda0f5188645",
            "0x0000000000000000000000002ed832ba664535e5886b75d64c46eb9a228c2610"
          ],
          "data": "0x00000000000000000000000000000000000000000000000029a2241af62c0000",
          "blockHash": "0xe3f9b8160d23472b3cb117acdb6ccf83817a4ecdaa5ab95ebf840b2f98e04745",
          "blockNumber": "0x1fd5129",
          "transactionHash": "0x4df79c3bac910bd4ab28991ae3d5eede969cafdbae620f862638dcf5c00355d7",
          "transactionIndex": "0x0",
          "logIndex": "0x0",
          "removed": false
        },
        {
          "address": "0x0b9d5d9136855f6fec3c0993fee6e9ce8a297846",
          "topics": [
            "0xe19260aff97b920c7df27010903aeb9c8d2be5d310a2c67824cf3f15396e4c16",
            "0x0000000000000000000000007888b7b844b4b16c03f8dacacef7dda0f5188645",
            "0x0000000000000000000000002ed832ba664535e5886b75d64c46eb9a228c2610"
          ],
          "data": "0x00000000000000000000000000000000000000000000000029a2241af62c0000000000000000000000000000000000000000000000000000000000000000004000000000000000000000000000000000000000000000000000000000000000200000000000000000000000000000000000000000000000000000000000000af6",
          "blockHash": "0xe3f9b8160d23472b3cb117acdb6ccf83817a4ecdaa5ab95ebf840b2f98e04745",
          "blockNumber": "0x1fd5129",
          "transactionHash": "0x4df79c3bac910bd4ab28991ae3d5eede969cafdbae620f862638dcf5c00355d7",
          "transactionIndex": "0x0",
          "logIndex": "0x1",
          "removed": false
        },
        {
          "address": "0x2ed832ba664535e5886b75d64c46eb9a228c2610",
          "topics": [
            "0xd39ec07f4e209f627a4c427971473820dc129761ba28de8906bd56f57101d4f8",
            "0x0000000000000000000000000000000000000000000000000000000000000af6"
          ],
          "data": "0x000000000000000000000000000000000000000000000000000000000000000000000000000000000000000000000000000000000000000029a2241af62c0000",
          "blockHash": "0xe3f9b8160d23472b3cb117acdb6ccf83817a4ecdaa5ab95ebf840b2f98e04745",
          "blockNumber": "0x1fd5129",
          "transactionHash": "0x4df79c3bac910bd4ab28991ae3d5eede969cafdbae620f862638dcf5c00355d7",
          "transactionIndex": "0x0",
          "logIndex": "0x2",
          "removed": false
        }
      ],
      "logsBloom": "0x01008000000000000080000000000000000000000000000200000000020000002000000002000000000000000000000000000000000000200000000000002000000000000000000000000008000000000000000000000000000020000000000000000000000000000000000000000000000080000000000000000010000000000000000000000000000000000020000010400020000000000000000000000000000000000000000200000000000000000000000000000000000400000000000000000002000000008000000000000000000000800000000800000000000000000000000000000000000200000000000000000000000000000000000000000000",
      "type": "0x2",
      "transactionHash": "0x4df79c3bac910bd4ab28991ae3d5eede969cafdbae620f862638dcf5c00355d7",
      "transactionIndex": "0x0",
      "blockHash": "0xe3f9b8160d23472b3cb117acdb6ccf83817a4ecdaa5ab95ebf840b2f98e04745",
      "blockNumber": "0x1fd5129",
      "gasUsed": "0x12b44",
      "effectiveGasPrice": "0x6f332da80",
      "from": "0x7888b7b844b4b16c03f8dacacef7dda0f5188645",
      "to": "0x0b9d5d9136855f6fec3c0993fee6e9ce8a297846",
      "contractAddress": null
    }
  ],
  "libraries": [],
  "pending": [],
  "returns": {},
  "timestamp": 1716694440,
  "chain": 43113,
  "commit": "b4ce5aa"
}